:100000000C946A000C9492000C9492000C94920050
:100010000C9492000C9492000C9492000C947A062A
:100020000C9492000C9492000C9492000C94920008
:100030000C9492000C9492000C9492000C949200F8
:100040000C94AC030C9492000C9496010C94D00187
:100050000C9492000C9492000C9492000C949200D8
:100060000C94A4100C949200591362137913811309
:100070008A13B613C3130000000700020100000337
:100080000406000000000000000001020408102027
:10009000408001020408102001020408102004041A
:1000A0000404040404040202020202020303030320
:1000B00003030000000023002600290000000000C8
:1000C000250028002B0000000000240027002A0043
:1000D0006D05681B11241FBECFEFD8E0DEBFCDBF7A
:1000E00011E0A0E0B1E0EEE6F3E402C005900D926D
:1000F000A03EB107D9F724E0A0EEB1E001C01D9207
:10010000AD3EB207E1F710E0C4EDD0E004C02297A5
:10011000FE010E94001EC03DD107C9F70E94600584
:100120000C94B5210C940000FC0124853585F9015F
:10013000E05CFF4F80819181329620813181821B6A
:10014000930B8F7399270895FC0184859585FC0195
:10015000E05CFF4F4081518132962081318142170E
:10016000530741F00190F081E02DE80FF91F8081E5
:1001700090E008958FEF9FEF0895FC0184859585A9
:10018000FC01E05CFF4F408151813296208131813A
:100190004217530779F0A081B181A80FB91F8C9144
:1001A000208131812F5F3F4F2F733327318320838D
:1001B00090E008958FEF9FEF0895FC0181A18823BF
:1001C00029F0A489B5898C9186FFFBCF11A20895EF
:1001D000CF93DF93FC0126853785D901A05CBF4F03
:1001E0008D919C91119701968F739927E901CE5BB0
:1001F000DF4F4881598184179507D9F30D90BC9141
:10020000A02DA20FB31F6C93A685B785A05CBF4F2E
:1002100011969C938E93A689B7892C9181E090E0EA
:10022000078C02C0880F991F0A94E2F7282B2C93A1
:1002300081E081A30488F589E02D8081806480833A
:1002400081E090E0DF91CF910895CF92DF92EF921D
:10025000FF920F931F93CF93DF936C017A01EB0111
:10026000E60EF71E00E010E0CE15DF0561F06991A3
:10027000D601ED91FC910190F081E02DC601099528
:10028000080F191FF1CFC801DF91CF911F910F9176
:10029000FF90EF90DF90CF900895833081F028F4A5
:1002A000813099F08230A1F008958630A9F087302E
:1002B000B9F08430D1F4809180008F7D03C08091AB
:1002C00080008F7780938000089584B58F7702C077
:1002D00084B58F7D84BD08958091B0008F7703C071
:1002E0008091B0008F7D8093B000089561157105F5
:1002F00081F0DB010D900020E9F7AD01415051097B
:10030000461B570BDC01ED91FC910280F381E02D3F
:10031000099480E090E00895089589EE91E00E94AC
:100320009400892B11F00C948C0108951F920F9268
:100330000FB60F9211242F933F934F938F939F9358
:10034000EF93FF938091C00082FD1CC04091C600D6
:1003500080918F029091900201968F73992720913E
:100360009102309192028217930771F0E0918F020F
:10037000F0919002E15BFD4F408390939002809357
:100380008F0202C08091C600FF91EF919F918F91E3
:100390004F913F912F910F900FBE0F901F90189586
:1003A0001F920F920FB60F9211242F933F938F93AA
:1003B0009F93EF93FF9320914B0230914C028091D9
:1003C0004D0290914E022817390731F48091C100F7
:1003D0008F7D8093C10014C0E0914D02F0914E02D8
:1003E000E55FFD4F208180914D0290914E02019674
:1003F0008F73992790934E0280934D022093C600ED
:10040000FF91EF919F918F913F912F910F900FBE90
:100410000F901F901895CF92DF92EF92FF92CF939B
:10042000DF93EC016A017B01411581EE58076105FC
:100430007105F9F0EC89FD8981E090E008A002C027
:10044000880F991F0A94E2F7808360E079E08DE3DA
:1004500090E0A70196010E94BD1D2150310941097C
:1004600051095695479537952795211580E138070D
:1004700098F0EC89FD89108260E874E88EE190E0E4
:10048000A70196010E94BD1D215031094109510962
:100490005695479537952795E889F9893083EA89F4
:1004A000FB89208319A2EE89FF89408181E090E0D9
:1004B0009C010C8C02C0220F331F0A94E2F7422BDE
:1004C0004083EE89FF8940819C010D8C02C0220F80
:1004D000331F0A94E2F7422B4083EE89FF89408163
:1004E0009C010E8C02C0220F331F0A94E2F7422BAC
:1004F0004083EE89FF8920810F8C02C0880F991FED
:100500000A94E2F7809582238083DF91CF91FF9058
:10051000EF90DF90CF9008950C947601DC01ED917F
:10052000FC910190F081E02D09940F931F93CF93DC
:10053000DF93EC016DE00E948E028C016AE0CE0137
:100540000E948E02800F911FDF91CF911F910F911A
:1005500008950F931F93CF93DF93EC010E947601D0
:100560008C01CE010E949502800F911FDF91CF91E7
:100570001F910F9108958F929F92AF92BF92CF9249
:10058000DF92EF92FF920F931F93CF93DF93CDB73C
:10059000DEB7A1970FB6F894DEBF0FBECDBF7C01CA
:1005A000C42EE52FCB01D22E19A221E02D1510F07B
:1005B000FAE0DF2E8E010F5D1F4F8D2C912CA12CA8
:1005C000B12C6C2D7E2FA50194010E94BD1D8C2D98
:1005D000D29E80191124015011098A3010F4805DD7
:1005E00001C0895CF8018083211531054105510561
:1005F00021F0C22EE32FCA01E4CFB801C7010E9447
:100600007601A1960FB6F894DEBF0FBECDBFDF9185
:10061000CF911F910F91FF90EF90DF90CF90BF90FF
:10062000AF909F908F900895CF92DF92EF92FF92BC
:100630000F931F93CF93DF93EC016A017B01211588
:10064000310579F4E881F9810190F081E02D642F82
:10065000DF91CF911F910F91FF90EF90DF90CF909E
:1006600009942A303105E9F477FF1AC06DE20E943F
:100670008E028C0144275527BA014C195D096E0979
:100680007F092AE0CE010E94BB02800F911FDF91FB
:10069000CF911F910F91FF90EF90DF90CF90089531
:1006A0002AE0B701A601CE01DF91CF911F910F91F2
:1006B000FF90EF90DF90CF900C94BB020F931F93AD
:1006C000CF93DF93EC019A01AB01662757FD60954C
:1006D000762F0E9414038C01CE010E949502800F98
:1006E000911FDF91CF911F910F9108952115310531
:1006F00041F4DC01ED91FC910190F081E02D642F3B
:1007000009940C94BB020F931F93CF93DF93EC01DA
:100710009A01462F50E060E070E00E9476038C0161
:10072000CE010E949502800F911FDF91CF911F9102
:100730000F9108950F931F93CF93DF93EC010E94C5
:1007400076038C01CE010E949502800F911FDF91EC
:10075000CF911F910F9108951F920F920FB60F9294
:1007600011242F933F938F939F93AF93BF938091C7
:10077000E1019091E201A091E301B091E401309197
:10078000E00123E0230F2D3720F40196A11DB11DB8
:1007900005C026E8230F0296A11DB11D2093E0019C
:1007A0008093E1019093E201A093E301B093E4010F
:1007B0008091E5019091E601A091E701B091E801F7
:1007C0000196A11DB11D8093E5019093E601A093D0
:1007D000E701B093E801BF91AF919F918F913F9155
:1007E0002F910F900FBE0F901F9018952FB7F89470
:1007F0006091E1017091E2018091E3019091E40147
:100800002FBF08953FB7F8948091E5019091E601DC
:10081000A091E701B091E80126B5A89B02C02F3F47
:1008200089F43FBF6627782F892F9A2F620F711D99
:10083000811D911D42E0660F771F881F991F4A9501
:10084000D1F708950196A11DB11DEBCFCF92DF9294
:10085000EF92FF92CF93DF936B017C010E94020421
:10086000EB01C114D104E104F10479F00E94020407
:100870006C1B7D0B683E7340A0F381E0C81AD10861
:10088000E108F108C851DC4FECCFDF91CF91FF9028
:10089000EF90DF90CF900895789484B5826084BD06
:1008A00084B5816084BD85B5826085BD85B5816074
:1008B00085BDEEE6F0E0808181608083E1E8F0E0D4
:1008C0001082808182608083808181608083E0E803
:1008D000F0E0808181608083E1EBF0E080818460E2
:1008E0008083E0EBF0E0808181608083EAE7F0E0E4
:1008F0008081846080838081826080838081816048
:1009000080838081806880831092C1000895CF9396
:10091000DF9390E0FC01E657FF4F2491FC01E25683
:10092000FF4F8491882349F190E0880F991FFC01C3
:10093000EA53FF4FA591B49184549F4FFC01C59198
:10094000D4919FB7611108C0F8948C9120958223AF
:100950008C93888182230AC0623051F4F8948C9180
:10096000322F309583238C938881822B888304C017
:10097000F8948C91822B8C939FBFDF91CF91089537
:100980000F931F93CF93DF931F92CDB7DEB7282F1E
:1009900030E0F901EA58FF4F8491F901E657FF4F23
:1009A0001491F901E256FF4F04910023C9F0882306
:1009B00021F069830E944D016981E02FF0E0EE0F84
:1009C000FF1FE454FF4FA591B4919FB7F8948C9109
:1009D000611103C01095812301C0812B8C939FBFAF
:1009E0000F90DF91CF911F910F910895CF93DF93D7
:1009F000282F30E0F901EA58FF4F8491F901E657BA
:100A0000FF4FD491F901E256FF4FC491CC2391F0EE
:100A100081110E944D01EC2FF0E0EE0FFF1FEE540C
:100A2000FF4FA591B4912C912D2381E090E021F40A
:100A300080E002C080E090E0DF91CF9108958E3099
:100A400008F08E5087702091040190E4299F900156
:100A50001124822B80937C0080917A0080648093A3
:100A60007A0080917A0086FDFCCF809178002091F9
:100A7000790090E0922B0895CF93DF9300D000D0BF
:100A8000CDB7DEB79B01AC016115710581059105FC
:100A900069F069833A834B835C830E94C01E29817D
:100AA0003A814B815C810E94DF1D03C060E070E0F1
:100AB000CB010F900F900F900F90DF91CF91089581
:100AC0000E944C040E948A17CDE8D1E00E94B4181D
:100AD0002097E1F30E948D01F9CF1092EC01109262
:100AE000EB0188EE93E0A0E0B0E08093ED019093FD
:100AF000EE01A093EF01B093F00189E391E09093B0
:100B0000EA018093E9018FE492E09093F6018093EB
:100B1000F5018BE092E09093F8018093F70185EC6A
:100B200090E09093FA018093F90184EC90E0909327
:100B3000FC018093FB0180EC90E09093FE01809398
:100B4000FD0181EC90E0909300028093FF0182EC24
:100B500090E0909302028093010286EC90E09093E3
:100B600004028093030284E08093050283E0809373
:100B7000060287E08093070285E08093080281E007
:100B80008093090208958091FD0390E02091FE0377
:100B9000821B910908952091FE038091FD0328177F
:100BA00050F4E22FF0E0E150FC4F808190E02F5FA5
:100BB0002093FE0308958FEF9FEF0895E091FE03C9
:100BC0008091FD03E81730F4F0E0E150FC4F8081A4
:100BD00090E008958FEF9FEF08950895E091D50379
:100BE000F091D6033097E1F03091FE032091FD03A0
:100BF0003217B0F040E0242F30E02617370754F4C6
:100C0000DC01A20FB31F5C91D901A150BC4F5C93D2
:100C10004F5FF1CF1092FE036093FD03CB01099467
:100C20000895E091D703F091D803309729F01092FE
:100C3000DB031092DA0309940895CF92DF92EF92CA
:100C4000FF92CF93DF93EC01882777FD8095982F53
:100C50000E947A1C6B017C0120E030E040E45FE3FD
:100C60000E942A1D20E030E048E452E40E94DF1B8D
:100C70000E94471CC617D707ECF020E030E040EA9E
:100C80005FE3C701B6010E942A1D20E030E048E47E
:100C900052E40E94DF1B20E030E040E85FE30E9466
:100CA000771B0E94471C21E06C177D070CF420E0A5
:100CB000822F01C080E090E0DF91CF91FF90EF9014
:100CC000DF90CF900895F89482E08093B0008093F5
:100CD000B10094E69093B3001092B200809370003C
:100CE0007894809320041092EC0480911F0460E0BB
:100CF0000C9487041F920F920FB60F9211242F931A
:100D00003F934F935F936F937F938F939F93AF9393
:100D1000BF93EF93FF9380911F040E94F6042091EC
:100D20002204309123042F5F3F4F309323042093FC
:100D300022049091EC04943618F095E090932004EE
:100D4000909120049330B9F018F4923039F057C0E4
:100D5000943059F1953009F44CC051C081114FC005
:100D600020912204309123042436310508F443C035
:100D70001092EC041CC0813009F041C0E091EC04F9
:100D800091E09E0F9093EC04F0E0209122043091CA
:100D90002304EE0FFF1FE15EFB4F36832583109285
:100DA00023041092220494E021C0811117C0E09125
:100DB000EC0491E09E0F9093EC04F0E0209122046B
:100DC00030912304EE0FFF1FE15EFB4F3683258336
:100DD000109223041092220493E008C02091220470
:100DE000309123042536310550F095E0909320048E
:100DF00006C0811104C01092230410922204909125
:100E00002104992329F0811102C02D9A01C02D9847
:100E1000FF91EF91BF91AF919F918F917F916F91D2
:100E20005F914F913F912F910F900FBE0F901F90A8
:100E30001895CF93DF93FB01C285D3858A819B816F
:100E4000885891098D35910500F58091EC04843026
:100E500029F48C819D8180974797D8F08091EC048C
:100E6000843498F08C819D81825491098E9768F426
:100E7000269623E030E080E090E0DC014881598153
:100E80004950510949305105D8F060E070E0CB017C
:100E90003AC08E819F810997099700F711861086C5
:100EA0008FEF9FEFDC0184839583A683B78381E076
:100EB00090E09183808361E070E080E090E023C067
:100EC0004A815B81465151094131510580F4880FB7
:100ED000991FAA1FBB1F81602E5F3F4F24962334AA
:100EE000310561F620E230E031872087DCCF4A818E
:100EF0005B81465051094730510538F6880F991FDC
:100F0000AA1FBB1FE9CFDF91CF9108950F931F93C5
:100F1000CF93DF93FB018091EC048A3108F44DC03C
:100F2000C285D38588819981843F914060F4118680
:100F300010868FEF9FEFDC0184839583A683B783B0
:100F400089E090E033C08A819B8185974B97A8F513
:100F50008E010A5F1F4F22E030E080E090E0DC016C
:100F60004091EC0450E0B9016F5F7F4F6417750743
:100F70005CF4A80142505109EA0148815981475067
:100F8000510947305105E8F0215031093595279531
:100F9000318720872C3031051CF4118610860DC056
:100FA00084839583A683B78382E090E091838083D6
:100FB00061E070E080E090E023C060E070E0CB0191
:100FC0001FC0E80148815981435151094F305105F3
:100FD00050F4880F991FAA1FBB1F81602E5F3F4FDF
:100FE0000C5F1F4FBDCFE801488159814A5051091C
:100FF0004930510510F7880F991FAA1FBB1FEECF6C
:10100000DF91CF911F910F9108950F931F93CF936D
:10101000DF93FB018091EC048A3108F451C0C28552
:10102000D385888199818032934030F4118610866F
:101030008FEF9FEFDC0107C08A819B81C69786975F
:1010400008F442C03DC084839583A683B78389E0BA
:1010500090E09183808361E070E080E090E04FC099
:10106000E80148815981455251094B315105D0F56C
:10107000880F991FAA1FBB1F81602E5F3F4F0C5F17
:101080001F4F4091EC0450E0B9016F5F7F4F641730
:1010900075075CF4A80142505109EA014881598161
:1010A0004C5051094B305105D8F22150310935953A
:1010B0002795318720872C3031052CF61186108634
:1010C00060E070E0CB011BC08C819D81C697869744
:1010D000B8F78E01085F1F4F23E030E080E090E01A
:1010E000DC01CFCFE801488159814C5051094A3089
:1010F000510530F7880F991FAA1FBB1FBECFDF9184
:10110000CF911F910F910895EF92FF920F931F932C
:10111000CF93DF93FB018091EC04823208F44DC041
:10112000C285D3858A819B810697079708F045C0C1
:101130007E0186E0E80EF11C22E030E080E090E0E5
:10114000DC01B9016F5F7F4F4091EC0450E0641700
:101150007507D4F4E7012297088119810E5111090E
:101160000731110570F5880F991FAA1FBB1F8160F9
:10117000E70148815981D4E0ED0EF11C435051093B
:101180004530510550F19B01215031093595279586
:1011900031872087203131051CF4118610860DC05F
:1011A00084839583A683B7838AE090E091838083CC
:1011B00061E070E080E090E013C060E070E0CB019F
:1011C0000FC0488159814C5051094B305105A8F747
:1011D000880F991FAA1FBB1FCBCF2E5F3F4FB1CFE8
:1011E000DF91CF911F910F91FF90EF9008958F9213
:1011F0009F92AF92BF92CF92DF92EF92FF920F93A6
:101200001F93CF93DF937A016901DA01CD91DC91CD
:10121000FB0184859585C817D9070CF04AC0CE011B
:10122000880F991F0284F385E02DE80FF91FA08035
:10123000B180C170DD27F1E0CF27209719F484E653
:1012400090E002C08CE99FEF4801880E991EB4011E
:10125000C5010E941D06892B99F4800E911EB401D0
:10126000C5010E941D06892B71F4B401600F711F26
:10127000C5010E941D06892BF9F023E030E005C06E
:1012800021E030E002C022E030E0D6018D919C9157
:10129000119701968217930744F0F601118210828C
:1012A000D7018D919C91119701968D939C93CE01BE
:1012B00005C081E090E002C08FEF9FEFDF91CF91FA
:1012C0001F910F91FF90EF90DF90CF90BF90AF9064
:1012D0009F908F9008954F925F926F927F928F921E
:1012E0009F92AF92BF92CF92DF92EF92FF920F93B5
:1012F0001F93CF93DF9300D000D0CDB7DEB76C0142
:101300007B018091EC048D3020F460E070E0CB0133
:101310007AC081E090E09C838B831A82198209E76E
:1013200013E09E012F5F3F4FAE014D5F5F4FC6013F
:101330000E94F708892B49F79E012F5F3F4FAE01AE
:101340004D5F5F4FB701C6010E94F7080197E9F6AC
:101350009E012F5F3F4FAE014D5F5F4FB701C6014A
:101360000E94F708892B89F6A12CB12C412C512C15
:1013700032018091EC0490E02B813C8128173907E1
:101380009CF509E713E09E012F5F3F4FAE014D5FD3
:101390005F4FB701C6010E94F7084C019E012F5F05
:1013A0003F4FAE014D5F5F4FB701C6010E94F70886
:1013B00021E08216910451F4892B09F0A6CF440C48
:1013C000551C661C771C689440F80AC0892809F0EF
:1013D0009CCF019709F099CF440C551C661C771CD3
:1013E0008FEFA81AB80AC5CFF701B186A08644824C
:1013F00055826682778283E090E09183808361E00A
:1014000070E080E090E00F900F900F900F90DF91D0
:10141000CF911F910F91FF90EF90DF90CF90BF90F1
:10142000AF909F908F907F906F905F904F900895B6
:101430002F923F924F925F926F927F928F929F92E4
:10144000AF92BF92CF92DF92EF92FF920F931F93D2
:10145000CF93DF9300D000D0CDB7DEB76C017B0116
:10146000DB011C968D919C911D971816190624F08E
:1014700060E070E0CB01B4C081E090E09C838B839E
:10148000DB011A96ED91FC911B97828193818997DC
:101490004E9770F782E090E09C838B8384819581E6
:1014A0000B970A9728F783E090E09C838B831A823E
:1014B00019820CEB11E09E012F5F3F4FAE014D5F93
:1014C0005F4FC6010E94F708892B91F60CEB11E0E3
:1014D0009E012F5F3F4FAE014D5F5F4FB701C601C9
:1014E0000E94F708019721F6A12CB12C212C312C58
:1014F00021012B813C81F7018485958528173907C7
:101500000CF060C00CEB11E09E012F5F3F4FAE016D
:101510004D5F5F4FB701C6010E94F7083C01B3E081
:10152000AB16B10491F00CEB11E09E012F5F3F4F21
:10153000AE014D5F5F4FB701C6010E94F7084C0135
:10154000E3E0AE16B10409F510C00CEB11E09E010A
:101550002F5F3F4FAE014D5F5F4FB701C6010E9445
:10156000F70868167906F9F283CF0CEB11E09E01BB
:101570002F5F3F4FAE014D5F5F4FB701C6010E9425
:10158000F7088816990609F073CF6114710459F4AD
:101590008A94892809F06CCF220C331C441C551CFA
:1015A000689420F80BC06A94672809F061CF8928F5
:1015B00009F05ECF220C331C441C551CAFEFAA1A55
:1015C000BA0A97CFB186A086248235824682578296
:1015D00084E090E09183808361E070E080E090E0BF
:1015E0000F900F900F900F90DF91CF911F910F915F
:1015F000FF90EF90DF90CF90BF90AF909F908F9033
:101600007F906F905F904F903F902F9008950F9331
:101610001F93CF93DF93FB01A285B38512968D9123
:101620009C911397C6978697D0F414968D919C91B0
:1016300015974B97459798F41696C3E0D0E020E0B5
:1016400030E040E050E060E070E080E090E00D913C
:101650001C911197095011090830110520F060E024
:1016600070E0CB0135C012960D911C91139701517A
:1016700011090D301105F8F401E00E94171E2160D8
:1016800022961496C336D10511F7248335834683F9
:10169000578300E20E94321E2283338387E090E06A
:1016A0009183808380E390E09187808761E070E0A0
:1016B00080E090E00DC012960D911C91139704509C
:1016C00011090530110558F601E00E94171ED8CF08
:1016D000DF91CF911F910F910895CF93DF93EB018D
:1016E0002A853B85F9018281938189579109833548
:1016F0009105B8F48091EC04893398F0F901848164
:101700009581CA97899768F4369643E050E080E067
:1017100090E0DC01608171816A5071096930710566
:1017200020F060E070E0CB0139C0628173816651C6
:1017300071096131710530F5880F991FAA1FBB1F10
:1017400081604E5F5F4F34964B33510519F7F901B5
:10175000EA58FF4F208131812A5031092930310563
:1017600000F72CE130E0398728878C839D83AE8396
:10177000BF838CE090E09983888361E070E080E033
:1017800090E00CC062817381665071096730710509
:1017900040F6880F991FAA1FBB1FD3CFDF91CF91AF
:1017A00008950F931F93CF93DF93FB018091EC0477
:1017B000028513858232A9F4D80112968D919C91ED
:1017C00013970A97099768F48091EC04D801A80F41
:1017D000B11DA80FB11D12978D919C910A97099781
:1017E00070F0D80112968D919C91139789579109A9
:1017F0008335910550F060E070E0CB015EC011864A
:1018000010868FEF9FEFDC014CC08091EC04813299
:1018100090F3E8018C819D81CA97899760F79801C0
:101820002A5F3F4F43E050E080E090E0DC01E901B7
:10183000688179816A50710969307105E0F6E901C2
:101840006A817B816651710961317105E0F4880F0D
:10185000991FAA1FBB1F81604E5F5F4F2C5F3F4FD8
:101860004332510521F7E801CA5BDF4F28813981F6
:101870002A5031092930310508F0BDCF20E130E090
:10188000318720870EC0E9016A817B81665071092A
:101890006730710508F0AFCF880F991FAA1FBB1FD3
:1018A000DBCF84839583A683B78388E090E0918320
:1018B000808361E070E080E090E0DF91CF911F9144
:1018C0000F910895CF93DF93FB01C285D3858A8161
:1018D0009B818C549109C59700F58091EC0484306C
:1018E00029F48C819D8180974797D8F08091EC04F2
:1018F000843498F08C819D8189549109C39768F450
:10190000269623E030E080E090E0DC0148815981B8
:101910004950510949305105D8F060E070E0CB01E1
:101920003AC08E819F810997099700F7118610862A
:101930008FEF9FEFDC0184839583A683B7838BE0D1
:1019400090E09183808361E070E080E090E023C0CC
:101950004A815B81465151094131510580F4880F1C
:10196000991FAA1FBB1F81602E5F3F4F249623340F
:10197000310561F620E230E031872087DCCF4A81F3
:101980005B81465051094730510538F6880F991F41
:10199000AA1FBB1FE9CFDF91CF9108958F929F922D
:1019A000AF92BF92CF92DF92EF92FF927B01BA018A
:1019B00080E090E00E94781C4B015C01B70180E060
:1019C00090E00E94781C6B017C012DEC3CEC4CE417
:1019D0005FE30E942A1D9B01AC01C501B4010E9476
:1019E000DB1B87FD17C02DEC3CEC4CE45FE3C5012D
:1019F000B4010E942A1D9B01AC01C701B6010E94DF
:101A0000DB1B992787FD90958827990F881F9927B9
:101A1000019602C080E090E0FF90EF90DF90CF90C1
:101A2000BF90AF909F908F9008958F929F92AF92AA
:101A3000BF92CF92DF92EF92FF920F931F93CF93BB
:101A4000DF936C01EB01EC84FD8486E0E816F10481
:101A50000CF444C0EE0CFF1C06E010E0E5EC8E2E0A
:101A6000EDE99E2EECE1AE2EE1E8BE2E8A859B8547
:101A7000FC01E00FF11F40815181F8013497E80F1C
:101A8000F91F60817181C6010E94CE0CFC01A50185
:101A9000940163E971E080E091E00E948D1D4F01A7
:101AA000AA2497FCA094BA2C86269726A826B926A5
:101AB0000E5F1F4F0E151F05C9F68C829D82AE82E8
:101AC000BF8280E290E0998788878FEF9FEF9983AC
:101AD000888361E070E080E090E003C060E070E047
:101AE000CB01DF91CF911F910F91FF90EF90DF908D
:101AF000CF90BF90AF909F908F9008950F931F93BA
:101B0000CF93DF938C01EB0184E294E09B878A877B
:101B10008091EC0490E09D878C8780912004853033
:101B200009F062C0C8010E941907672B682B692B56
:101B300019F081E090E05AC0BE01C8010E948607FA
:101B4000672B682B692BA9F7BE01C8010E94050805
:101B5000672B682B692B69F7BE01C8010E948408B6
:101B6000672B682B692B29F7BE01C8010E946B09FE
:101B7000672B682B692BE9F6BE01C8010E94180A81
:101B8000672B682B692BA9F6BE01C8010E94070BC1
:101B9000672B682B692B69F6BE01C8010E946D0B8B
:101BA000672B682B692B29F6BE01C8010E94D10B57
:101BB000672B682B692B09F0BCCFBE01C8010E94BE
:101BC000620C672B682B692B09F0B3CFBE01C801EB
:101BD0000E94150D672B682B692B09F0AACF82E0B4
:101BE000809320041092EC0480E090E0DF91CF918C
:101BF0001F910F910895CF92DF92EF92FF920F9372
:101C00001F93CF93DF938C017B01EB01C42ED12C6A
:101C1000CE018E199F098C159D0564F4F801808111
:101C200091819C012F5F3F4F318320830E94C2200E
:101C30008993EECFDF91CF911F910F91FF90EF909D
:101C4000DF90CF900895FC011382128248EE53E09A
:101C500060E070E0448355836683778383ED91E091
:101C600091838083089581E08093D9036093FC037E
:101C70001092DB031092DA0308951092C80381E0FA
:101C80008093C6031092C50361E082E10E94C00404
:101C900061E083E10E94C004E9EBF0E080818E7F87
:101CA000808380818D7F808388E48093B80085E481
:101CB0008093BC0008951092FE031092FD031092D1
:101CC000DB031092DA030C943D0E660F6093BA00AA
:101CD00021E136E03093C4032093C3032EEE35E0B8
:101CE0003093C2032093C1030C945B0E1F93CF93D8
:101CF000DF93EC01162F89EC93E00E94650E1883A8
:101D0000DF91CF911F910895413208F03FC090912B
:101D1000C8039111FCCF91E09093C8032093C603B0
:101D20002FEF20935B031092A003240F20939F03B7
:101D30009093C7039091C703880F892B8093C703A3
:101D40008091C503813041F41092C5038091C7038F
:101D50008093BB0085EC01C085EE8093BC00809130
:101D6000C8038130E1F38091A003841710F44091FF
:101D7000A00321EA33E0FB01D9018A2F821B8417DB
:101D800018F48D918193F9CF842F089580E0089500
:101D9000862F413208F040E26FEF73E00E94840E1C
:101DA0001092FE038093FD03089521E00C94C80E69
:101DB0000F934132C8F59091C8039111FCCF92E086
:101DC0009093C8030093C6039FEF90935B03109218
:101DD000A00340939F03FB0161EA73E0DB019A2FAC
:101DE000961B941718F491919D93F9CF1092C70305
:101DF0009091C703880F892B8093C7038091C503F7
:101E0000813041F41092C5038091C7038093BB00D9
:101E100085EC01C085EE8093BC00222339F08091CF
:101E2000C803823019F4FBCF81E013C080915B03BB
:101E30008F3F71F080915B03803231F080915B03C2
:101E4000803321F483E005C082E003C084E001C058
:101E500080E00F9108950F93062F21E04091DA035F
:101E60006CED73E08091FC030E94D80E1092DB03AE
:101E70001092DA031092D9030F91089561E00C9447
:101E80002B0F613298F42091C803243089F46093B9
:101E90007D03FC018FE793E0DC012A2F281B261726
:101EA00018F421912D93F9CF80E0089581E00895F1
:101EB00082E00895CF93DF931F92CDB7DEB7698399
:101EC0002091D9032223D1F02091DA03203240F06F
:101ED00021E030E0FC013383228380E090E015C0F4
:101EE0008091DB03E82FF0E0E452FC4F998190836E
:101EF0008F5F8093DB038093DA0305C061E0CE013E
:101F000001960E94410F81E090E00F90DF91CF9108
:101F100008951F93CF93DF931F92CDB7DEB7162F8F
:101F2000FC01608189EC93E049830E94330E612FAC
:101F300089EC93E00E945A0F4981642F89EC93E069
:101F40000E945A0F89EC93E00F90DF91CF911F917F
:101F50000C943E0F6F927F928F929F92AF92BF929E
:101F6000CF92DF92EF92FF920F931F93CF93DF9365
:101F70001F92CDB7DEB76C01162F7A01FC0160818C
:101F800089EC93E029830E94330E612F89EC93E062
:101F90000E945A0F10E0612C712C29815801A20E69
:101FA000B11CE00EF11E4801FFEF8F1A9F0AC3011A
:101FB000800F911F8A159B05FCF4F701E60DF71DB4
:101FC000608189EC93E00E945A0FC401860D971D31
:101FD0008F719927892B61F489EC93E00E943E0F61
:101FE00081111DC0F601608189EC93E00E94330EDF
:101FF000FFEF6F1A7F0ADBCF89EC93E00F90DF9140
:10200000CF911F910F91FF90EF90DF90CF90BF90F5
:10201000AF909F908F907F906F900C943E0F0F9099
:10202000DF91CF911F910F91FF90EF90DF90CF90B4
:10203000BF90AF909F908F907F906F900895CF92B8
:10204000DF92FF920F931F93CF93DF931F92CDB731
:10205000DEB76C01F62E8901FC01608189EC93E00A
:1020600049830E94330E6F2D89EC93E00E945A0F32
:1020700089EC93E00E943E0FF601608189EC93E0C9
:102080000E94330E4981F601608189EC93E00E9441
:10209000D50EF12C9091FD038091FE03981759F015
:1020A0006801CF0CD11C89EC93E00E94CB05F601AE
:1020B0008083F394EFCF89EC93E00F90DF91CF9181
:1020C0001F910F91FF90DF90CF900C943E0FCF9215
:1020D000DF92EF92FF920F931F93CF93DF937C01D8
:1020E000CB018A012091D903222389F0EB016B01F6
:1020F000C40ED51ECC15DD0569F06991D701ED91AF
:10210000FC910190F081E02DC7010995F3CF642F78
:102110000E94410FC801DF91CF911F910F91FF9055
:10212000EF90DF90CF90089585ED8093BC00809173
:10213000BC0084FDFCCF1092C803089585EC809309
:10214000BC001092C80308951F920F920FB60F9211
:1021500011242F933F934F935F936F937F938F93AC
:102160009F93AF93BF93EF93FF938091B900887FC4
:10217000803609F49CC068F5883209F45BC090F49D
:10218000803109F454C038F4882309F4F5C088304C
:1021900009F44DC0F5C0883109F44CC0803209F40F
:1021A0005DC0EEC0803409F468C048F4803309F49F
:1021B00055C0883309F0E4C080935B03A8C0803524
:1021C00009F44FC0883509F45DC0883409F0D8C0DF
:1021D000D5C0883909F4C6C0A8F4883709F467C0A7
:1021E00038F4883609F463C0803709F460C0C8C089
:1021F000883809F4B7C0803909F45FC0803809F025
:10220000BFC05BC0803B09F485C038F4803A09F454
:1022100066C0883A09F47EC0B3C0803C09F4A6C009
:10222000883C09F4A3C0883B09F489C0A9C0809107
:10223000C70310C09091A00380919F03981770F579
:10224000E091A00381E08E0F8093A003F0E0EF55B2
:10225000FC4F80818093BB0085EC85C080935B033D
:102260008DC0E091A00381E08E0F8093A003809148
:10227000BB00F0E0EF55FC4F80839091A00380916C
:102280009F036DC0E091A00381E08E0F8093A003B7
:102290008091BB00F0E0EF55FC4F80838091C60336
:1022A00081116CC081E08093C50384EA60C083E043
:1022B0008093C80310925C03CFCF80915C0380327F
:1022C00008F050C0E0915C0381E08E0F80935C03C6
:1022D0008091BB00F0E0E35AFC4F8083BDCF80913A
:1022E0005C03803230F4E0915C03F0E0E35AFC4F91
:1022F00010820E94941060915C0370E0E091C10331
:10230000F091C2038DE593E0099510925C030E9461
:102310009E1036C084E08093C80310927E03109212
:102320007D03E091C303F091C403099580917D037F
:10233000811105C081E080937D0310927F03E091BD
:102340007E0381E08E0F80937E03F0E0E158FC4F26
:1023500080818093BB0090917E0380917D039817CC
:1023600008F47ACF85E88093BC000AC085EC80939E
:10237000BC001092C80304C010925B030E9494102A
:10238000FF91EF91BF91AF919F918F917F916F914D
:102390005F914F913F912F910F900FBE0F901F9023
:1023A0001895FF920F931F93CF93DF931F92CDB792
:1023B000DEB78C01F62E642F0E94760E4F2D4771EA
:1023C00061E0C8010E94890F41E260E0C8010E94FB
:1023D000890F9E012F5F3F4F41E060E0C8010E94DE
:1023E0001F1081E09981913209F080E00F90DF9118
:1023F000CF911F910F91FF9008950F93CF93DF938B
:1024000000D000D0CDB7DEB7342F19821A821B82DC
:102410001C82262F22952F702C836295607F6B8300
:10242000330F330F3A5F00E024E0AE014F5F5F4FA0
:10243000632F0E94AA0F0F900F900F900F90DF91C3
:10244000CF910F910895CF93DF93FC01DC01A85742
:10245000BF4F1C92693010F4608302C089E0808312
:10246000408150E0DF019F0180E090E02F5F3F4F0F
:1024700084179507ECF412961C921E921197EF01A7
:10248000C80FD91F1DA29F961C921E929E97ED0108
:10249000C05CDF4F19821882629619821882E901A6
:1024A000CB58DF4F18822996188201961296DECFFC
:1024B000DF91CF91089588579F4FFC01108240E72C
:1024C00064E00C94D1112F923F924F925F926F92E1
:1024D0007F928F929F92AF92BF92CF92DF92EF92B4
:1024E000FF920F931F93CF93DF93CDB7DEB727975C
:1024F0000FB6F894DEBF0FBECDBF9B838A83DC018D
:102500006C9170E0FC019F014A815B81241B350BBB
:1025100026173707B4F545A19F0121583F4F790190
:102520009C012E5A3F4F47FF1FC0D7011C91AC01A1
:102530004C595F4F11110EC0D9010D911C9101151D
:10254000124014F410E007C0DA010D911C9101153E
:102550001240C4F711E0D7011C93D9012D913C9191
:10256000DA012D933C930AC041E0D9012D913C91B1
:10257000211532400CF440E0D7014C93319602967D
:10258000C2CF6A01FA011982CF012A813B81821BE5
:10259000930B861797070CF04EC0AF0141585F4F61
:1025A000DA018C91882309F441C0D60111968D91EE
:1025B0009C9112979E962D913C919F97820F931F0D
:1025C0008115B8E09B076CF1985015A1012F00739D
:1025D0009F012A583F4F0023C1F015FF03C002E0BE
:1025E000E02E01C0E12CD901FC9014FB002700F97A
:1025F0000E0DF01204C01C9217FF0EC00AC0F39417
:10260000D901FC92B1E0B9830CC0D9011C9217FF2B
:1026100006C0DA011C92F6CF21E0298302C031E026
:102620003983D60112969C938E9311973196B2E01E
:10263000CB0ED11CA9CF89016901E12CF12C412CD1
:10264000512C3201490138E8830E911C22242A942E
:10265000B7E03B2EAA81BB818C9190E0E816F90689
:102660000CF0D5C0AA80BB80AE0CBF1CD5019596DE
:10267000EC91E7FD04C08E2F807C803439F4D601C4
:10268000A158BF4F8C91882309F4B2C0D601AA5833
:10269000BF4F8C918111ACC08E2F877090E0FC01F0
:1026A0003197E730F10508F074C0EC5CFF4F0C94F3
:1026B000FE1DF80141805280A3E055944794AA95ED
:1026C000E1F712C0D80111968D919C911297811556
:1026D000B4E09B0714F42C0103C02101481A590AE5
:1026E0005594479455944794662457FC6094762CEF
:1026F00048C0F80181819281811594400CF049C055
:1027000042C0D80111968D919C9112978A399140BF
:10271000D4F13FC0F80121813281C901E6E09595ED
:102720008795EA95E1F7211534402CF02FE130E050
:10273000281B390BC901BC01882777FD8095982F8C
:102740000E947A1C9B01AC010E942A1D0E94471C1A
:102750002B013C013FEF431651046104710489F0E1
:1027600084F0412C512C32014A940BC049814423FE
:10277000A9F06FEF70E080E090E00E943C052B0133
:102780003C01E1E00CC0E1E0412C512C32014A94C3
:1027900006C0E1E0412C512C320101C0E0E0D8013B
:1027A000A05CBF4F0D90BC91A02DA30192010E948F
:1027B0000F1E272F382F492F552747FD5A952C8359
:1027C0003D834E835F836C817D81D50195962C91ED
:1027D00023FF06C06FEF70E02C813D81621B730BFD
:1027E0006115710511F461E070E0EE2339F002C06B
:1027F00060E070E04E2DC4010E94FD113FEFE31A2E
:10280000F30A4FEFC41AD40A0E5F1F4F23CF279647
:102810000FB6F894DEBF0FBECDBFDF91CF911F91F1
:102820000F91FF90EF90DF90CF90BF90AF909F906F
:102830008F907F906F905F904F903F902F90089572
:10284000CF93DF93FA01A62FB0E0EC01CA0FDB1F94
:102850002DA120831182AA0FBB1FA80FB91F549668
:102860008C915497828353968C918383DF91CF917F
:1028700008950F931F93CF93DF93EC01862FFA01F6
:10288000A281B0E0BA2FAA279381A90FB11D408180
:1028900068810E949D1D092F10E09E01200F311FAD
:1028A000F90145A3CD0160E078E00E94A91DF8017F
:1028B000EE0FFF1FEC0FFD1F948B838B92838183A0
:1028C000F901EA58FF4F108239961082DF91CF91BB
:1028D0001F910F91089590E0880F991FFC01E15F0F
:1028E000FE4F2081318121503F4F213044E0340799
:1028F00010F020E030E0FC01E15FFE4F31832083E7
:102900000895CF92DF92EF92FF92109216011092EB
:1029100015018FE00E941F05909318018093170105
:1029200080E10E941F0590931A018093190181E1B3
:102930000E941F0590931C0180931B0182E00E945E
:10294000F60490919702891729F08093970287E007
:102950000E946B1483E00E94F604909198028917FC
:1029600029F08093980288E00E946B1484E00E9412
:10297000F60490919902891729F08093990289E0D1
:102980000E946B140E94F6036B017C018091A402EB
:102990009091A502A091A602B091A702A70196016D
:1029A000281B390B4A0B5B0BDA01C901893E9340A6
:1029B000A105B10590F060E074E080E090E00E9435
:1029C0003C0570932C0160932B01C092A402D0921D
:1029D000A502E092A602F092A7028091A002909137
:1029E000A102A091A202B091A302A7019601281B07
:1029F000390B4A0B5B0BDA01C90181319742A10502
:102A0000B10590F060E074E080E090E00E943C0549
:102A100070932E0160932D01C092A002D092A1026A
:102A2000E092A202F092A302FF90EF90DF90CF908D
:102A30000895E82FF0E087FF08C0CF018F77B3E05B
:102A4000880F991FBA95E1F70895EE0FFF1FE15F18
:102A5000FE4F808191810895CF93DF93C0919A02B8
:102A6000809106010E9419159695879596958795F0
:102A700020919B0230919C02820F931F90939C02A5
:102A800080939B028115984008F4BEC02C2F2F70B4
:102A900080910B0190910C0140910A01223019F1B3
:102AA00018F4213041F068C0233009F446C02430C6
:102AB00009F46CC061C0880F991F90930C0180933A
:102AC0000B0121E030E0B901042E02C0660F771F30
:102AD0000A94E2F78617970709F04EC030930C016D
:102AE00020930B0149C0209105012223E9F0880FB2
:102AF000991F0196209108013091090182239323A7
:102B000090930C0180930B0121E030E0042E02C071
:102B1000220F331F0A94E2F72150310982179307DD
:102B200059F51092050128C09695879590930C0150
:102B300080930B01019701F51CC020910501211123
:102B4000D6CF880F991F2091080130910901822367
:102B5000932390930C0180930B0121E030E05FEF11
:102B6000540F02C0220F331F5A95E2F782179307C2
:102B700019F481E080930501A0910B01B0910C0143
:102B8000EFE2F1E050E0C1E0D0E022C0880F991FF1
:102B90008230910511F483E090E090930C018093D2
:102BA0000B0180910B0190910C0120910801309153
:102BB00009018223932390930C0180930B01892BAD
:102BC000D9F681E090E090930C0180930B01D4CF73
:102BD000852F642F0E949D1D9E0102C0220F331F6E
:102BE0009A95E2F72A233B23232B19F02FEF33E0AA
:102BF00002C020E030E0219331935F5F533041F712
:102C000010929C0210929B02DF91CF910895AF9297
:102C1000BF92CF92DF92EF92FF920F931F93CF93C9
:102C2000DF9300D000D01F92CDB7DEB7A82EB12C15
:102C30006501CC0CDD1CCA0CDB1CC6018E5A9C4FF6
:102C40006C01FC0180811F928F9337EBE32E31E002
:102C5000F32EFF92EF928E010F5F1F4F1F930F9382
:102C60000E94CE1EB80189EE91E00E948C02F5010F
:102C7000E15BFC4F2081822F992787FD90959F93E0
:102C80002F93FF92EF921F930F930E94CE1EB801D5
:102C900089EE91E00E948C026CEB71E089EE91E08C
:102CA0000E948C02F60181811F928F93FF92EF9216
:102CB0001F930F930E94CE1EB80189EE91E00E94EF
:102CC0008C02F60182811F928F93FF92EF921F93E5
:102CD0000F930E94CE1EB80189EE91E00E94A902D6
:102CE0000FB6F894DEBF0FBECDBF0F900F900F90C0
:102CF0000F900F90DF91CF911F910F91FF90EF9068
:102D0000DF90CF90BF90AF900895EF92FF920F9316
:102D10001F93CF93DF93CDB7DEB729970FB6F89403
:102D2000DEBF0FBECDBFAE014A5F5F4F682F88EA9E
:102D300092E00E9420148E811F928F9347EBE42E25
:102D400041E0F42EFF92EF928E010F5F1F4F1F9311
:102D50000F930E94CE1EB80189EE91E00E948C0272
:102D60008F811F928F93FF92EF921F930F930E9478
:102D7000CE1EB80189EE91E00E948C026CEB71E0EE
:102D800089EE91E00E948C0288851F928F93FF92BA
:102D9000EF921F930F930E94CE1EB80189EE91E02F
:102DA0000E948C0289851F928F93FF92EF921F934E
:102DB0000F930E94CE1EB80189EE91E00E94A902F5
:102DC0000FB6F894DEBF0FBECDBF29960FB6F894AC
:102DD000DEBF0FBECDBFDF91CF911F910F91FF904E
:102DE000EF900895DF92EF92FF920F931F93CF938E
:102DF000DF9300D000D000D0CDB7DEB7182F6EEB38
:102E000071E089EE91E00E948C024AE050E0612F6F
:102E100089EE91E00E94830320E2129FC0011124F9
:102E200048979E838D8344E0BE016F5F7F4FCE0144
:102E300005960E94FB0D898180939F0244E0BE01AC
:102E40006F5F7F4FCE0105960E94FB0D898190E058
:102E500090930701809306018A8180939A0281E012
:102E600090E090930C0180930B0183E080930A0122
:102E700087E090E0909309018093080110E044E01E
:102E8000BE016F5F7F4FCE0105960E94FB0DAE0124
:102E90004F5F5F4F612F88EA92E00E943914812FC3
:102EA0000E9485161F5F133051F75FE4E52E53E053
:102EB000F52E04E513E0D12C44E0BE016F5F7F4F97
:102EC000CE0105960E94FB0DF8013297898180831F
:102ED0008A81F70181937F01F80131978B8180838B
:102EE0008C81F80180838D2D0E940716D3940D5F8D
:102EF0001F4FF3E0DF12E0CF26960FB6F894DEBF47
:102F00000FBECDBFDF91CF911F910F91FF90EF903A
:102F1000DF90089562E082E00E94870462E083E02F
:102F20000E94870462E084E00E94870462E089E0F6
:102F30000E94870460E08AE00E94870461E085E0E7
:102F40000E94870440E855E260E070E089EE91E07D
:102F50000E940B0269EC71E089EE91E00E94A902E7
:102F600088EA92E00E945B128EE493E00E9463067E
:102F700080E090E00E94C220833069F481E090E01C
:102F80000E94C2208093350382E090E00E94C2201C
:102F9000809333030EC063E080E090E00E94CA207B
:102FA00060E081E090E00E94CA2010923503109208
:102FB0000D0180913503882331F081E08093340343
:102FC0000E94F21660C089E08093CD021092BC028C
:102FD0001092BB021092AA021092A90210921E0334
:102FE0001092270384E08093520310924F0381E0F4
:102FF00080935303809354032091A802622F0E9470
:103000009D1DE92FF0E0DF01A855BD4F95961C925C
:103010009597EE0FFF1FE855FD4F148A138A128211
:103020001182FD01EA58FF4F1082A158BF4F1C9238
:1030300010925503109250031092560310925703AA
:1030400082E00E949D1DE92FF0E0DF01A855BD4FF1
:1030500095961C929597EE0FFF1FE855FD4F148A29
:10306000138A12821182FD01EA58FF4F1082A15883
:10307000BF4F1C9286E08093580310925103109228
:10308000590310925A0361E085E00E94C0046CEB82
:1030900072E080E090E00E94260460E085E00E94FB
:1030A000C0040E94F603609393027093940280938D
:1030B00095029093960208956D3B22E472072FEFDC
:1030C0008207910509F448C0E8F4673E28E17207D9
:1030D0002FEF82079105E1F138F46F3E70418F4F79
:1030E0009105F1F584E008956F3C20E372072FEF1E
:1030F00082079105B9F1673C78438F4F910581F5BF
:1031000085E00895653A2AE572072FEF8207910559
:1031100009F170F4653B2AE472072FEF82079105ED
:10312000E9F06D3A72458F4F9105D1F489E0089529
:10313000673928E672072FEF8207910539F0653865
:103140007A478F4F910561F483E0089580E00895F8
:1031500082E0089586E0089587E0089588E0089564
:103160008FEF089581E00895CF92DF92EF92FF9262
:103170000F931F93CF93DF930E9481140E94F60355
:10318000C0909302D0909402E0909502F090960245
:103190006C197D098E099F096F33710581059105B1
:1031A00008F48DC280910D018823B1F1809138031C
:1031B00090913903A0913A03B0913B03892B8A2B5C
:1031C0008B2B51F5809133030E941915A5E096953C
:1031D0008795AA95E1F72091310330913203820F50
:1031E000931F909332038093310381159840A0F090
:1031F000809134038F5F8093340390913503981747
:1032000018F481E080933403809134030E94F21615
:10321000109232031092310360E473E08EE493E085
:103220000E947E0D892B09F4AFC140914403509157
:103230004503609146037091470340933C035093CC
:103240003D0360933E0370933F0382E0809320042C
:103250001092EC044F3F8FEF58076807780709F486
:1032600093C120E130E089EE91E00E949A038091C1
:10327000380390913903A0913A03B0913B038F3604
:103280009049AF4FB10509F097C060913C03709130
:103290003D0380913E0390913F036F34F0EB7F0735
:1032A000FFEF8F079105F9F4909137038091360372
:1032B0002AE0929F800D1124882341F090913503DC
:1032C000981720F08093340381E001C080E01092D1
:1032D00038031092390310923A0310923B0388236B
:1032E00009F46AC05DC06D3FE2E07E07EFEF8E0734
:1032F000910561F4809134038F5F80933403909142
:103300003503981708F04CC081E010C06D3DF2E223
:103310007F07FFEF8F07910561F48091340381509F
:103320008093340381113CC0809135038093340332
:1033300037C0673628E972072FEF82079105A1F1A0
:103340006D33E2EC7E07EFEF8E07910541F481E0EB
:1033500090910D01911180E080930D0125C00E9494
:103360005C18C82F4AE050E0682F89EE91E00E9477
:103370008303CF3F09F18091360380933703C093D5
:10338000360360E085E00E94C00468EC70E080E0F5
:1033900090E00E94260461E085E00E94C0040CC019
:1033A000809134030E94F216109238031092390370
:1033B00010923A0310923B0380913C0390913D039D
:1033C000A0913E03B0913F038F36F0E99F07FFEFD6
:1033D000AF07B10591F420913503222309F47FC092
:1033E0008093380390933903A0933A03B0933B033F
:1033F000109237031092360372C08D3522EA92077D
:103400002FEFA207B10551F480910E0181508093F6
:103410000E01873008F063C08CE010C08D3162EE81
:1034200096076FEFA607B10561F480910E018F5FDB
:1034300080930E018D3008F452C087E080930E0116
:103440004EC08F31E0EE9E07EFEFAE07B10541F0C1
:103450008735F8EA9F07FFEFAF07B10509F03FC0D6
:1034600020910E012A3018F44FEF50E002C040E2E4
:1034700050E030E0220F331FF901E15FFE4FC081C1
:10348000D1818F31904EAF4FB10539F4C41BD50BAC
:10349000D7FF0BC0C0E0D0E008C0C40FD51FC115D6
:1034A00084E0D80714F0CFEFD3E0F901E15FFE4FDD
:1034B000D183C08361E085E00E94C00464E670E0CF
:1034C00080E090E00E94260460E085E00E94C00455
:1034D0004AE050E0BE0189EE91E00E945E038091D7
:1034E0003C0390913D03A0913E03B0913F038D3585
:1034F000E2EA9E07EFEFAE07B10599F08D31924EEB
:10350000AF4FB10571F08091380390913903A091CC
:103510003A03B0913B03892B8A2B8B2B89F560E012
:1035200030C080910E018A3018F08AEF90E002C01E
:1035300084E690E010E0C3E0D0E06C01EE24D7FC1C
:10354000E094FE2C80910E0190E00797BE010E944E
:10355000A91D212F30E082179307ACF261E085E0CE
:103560000E94C004C701B6010E94260460E085E005
:103570000E94C004C701B6010E9426041F5FE2CF6B
:1035800061E085E00E94C0040E94F603609393020C
:1035900070939402809395029093960280919F027B
:1035A0000E941915E4E096958795EA95E1F7209138
:1035B0009D0230919E02820F931F811528E0920791
:1035C00008F0985090939E0280939D0220919D0256
:1035D00030919E02211564E0360728F430932A01C9
:1035E0002093290108C080E098E0821B930B909300
:1035F0002A018093290180919A0281110E942C1541
:10360000D090A8020FE413E0C4E5D3E0C12CFE0182
:10361000329780810E9419159C01F80181918F01D8
:10362000181634F402C0220F331F8A95E2F70BC03C
:10363000882349F0992781950CF4909502C036951E
:1036400027958A95E2F78C2D6D2D0E949D1DE92E00
:10365000F12CF701EE0FFF1FEA52FD4F359527952C
:103660003595279531832083FE01319780810E9413
:103670001915F701EE0FFF1FE851FD4F959587953E
:10368000959587959183808388810E941915F7010C
:10369000EE0FFF1FE650FD4F91838083C394239666
:1036A000F3E0CF12B4CF88EA92E0DF91CF911F917F
:1036B0000F91FF90EF90DF90CF900C946312DF9109
:1036C000CF911F910F91FF90EF90DF90CF900895D1
:1036D00089EC93E00E94230E8AE080931F041092ED
:1036E000210463E088EA92E00C9423125058BB272F
:1036F000AA270ED075C166D130F06BD120F031F41D
:103700009F3F11F41EF45BC10EF4E095E7FB51C13D
:10371000E92F77D180F3BA176207730784079507FB
:1037200018F071F49EF58FC10EF4E0950B2EBA2FB0
:10373000A02D0B01B90190010C01CA01A0011124B7
:10374000FF27591B99F0593F50F4503E68F11A1663
:10375000F040A22F232F342F4427585FF3CF4695F4
:1037600037952795A795F0405395C9F77EF41F1616
:10377000BA0B620B730B840BBAF09150A1F0FF0FE0
:10378000BB1F661F771F881FC2F70EC0BA0F621FCC
:10379000731F841F48F4879577956795B795F795BC
:1037A0009E3F08F0B3CF9395880F08F09927EE0F4E
:1037B000979587950895D9D008F481E008950CD0A5
:1037C0000FC107D140F0FED030F021F45F3F19F077
:1037D000F0C0511139C1F3C014D198F39923C9F342
:1037E0005523B1F3951B550BBB27AA276217730707
:1037F000840738F09F5F5F4F220F331F441FAA1FBB
:10380000A9F333D00E2E3AF0E0E830D0915050407A
:10381000E695001CCAF729D0FE2F27D0660F771F28
:10382000881FBB1F261737074807AB07B0E809F00A
:10383000BB0B802DBF01FF2793585F4F2AF09E3F9F
:10384000510568F0B6C000C15F3FECF3983EDCF371
:10385000869577956795B795F7959F5FC9F7880F18
:10386000911D9695879597F90895E1E0660F771F6A
:10387000881FBB1F621773078407BA0720F0621BFB
:10388000730B840BBA0BEE1F88F7E095089504D0F4
:103890006894B111D9C00895BCD088F09F5790F0BA
:1038A000B92F9927B751A0F0D1F0660F771F881F65
:1038B000991F1AF0BA95C9F712C0B13081F0C3D080
:1038C000B1E00895C0C0672F782F8827B85F39F01E
:1038D000B93FCCF3869577956795B395D9F73EF4C4
:1038E00090958095709561957F4F8F4F9F4F08956C
:1038F000E89409C097FB3EF490958095709561958A
:103900007F4F8F4F9F4F9923A9F0F92F96E9BB273F
:103910009395F695879577956795B795F111F8CFBB
:10392000FAF4BB0F11F460FF1BC06F5F7F4F8F4F26
:103930009F4F16C0882311F096E911C0772321F01C
:103940009EE8872F762F05C0662371F096E8862FB4
:1039500070E060E02AF09A95660F771F881FDAF70B
:10396000880F9695879597F90895990F0008550F38
:10397000AA0BE0E8FEEF16161706E807F907C0F0F5
:1039800012161306E407F50798F0621B730B840BFD
:10399000950B39F40A2661F0232B242B252B21F4D7
:1039A00008950A2609F4A140A6958FEF811D811D77
:1039B000089597F99F6780E870E060E008959FEFB1
:1039C00080EC089500240A941616170618060906B6
:1039D000089500240A941216130614060506089585
:1039E000092E0394000C11F4882352F0BB0F40F40D
:1039F000BF2B11F460FF04C06F5F7F4F8F4F9F4F4D
:103A0000089557FD9058440F551F59F05F3F71F0CE
:103A10004795880F97FB991F61F09F3F79F0879535
:103A20000895121613061406551FF2CF4695F1DFBE
:103A300008C0161617061806991FF1CF869571054E
:103A4000610508940895E894BB2766277727CB0182
:103A500097F908950BD0C4CFB5DF28F0BADF18F07E
:103A6000952309F0A6CFABCF1124EECFCADFA0F388
:103A7000959FD1F3950F50E0551F629FF001729F03
:103A8000BB27F00DB11D639FAA27F00DB11DAA1F22
:103A9000649F6627B00DA11D661F829F2227B00D6F
:103AA000A11D621F739FB00DA11D621F839FA00DFA
:103AB000611D221F749F3327A00D611D231F849F4A
:103AC000600D211D822F762F6A2F11249F575040A1
:103AD0008AF0E1F088234AF0EE0FFF1FBB1F661F3C
:103AE000771F881F91505040A9F79E3F510570F0F5
:103AF00060CFAACF5F3FECF3983EDCF386957795D5
:103B00006795B795F795E7959F5FC1F7FE2B880FEF
:103B1000911D9695879597F90895DB018F939F9353
:103B20000E94041EBF91AF91A29F800D911DA39F83
:103B3000900DB29F900D11240895991B79E004C057
:103B4000991F961708F0961B881F7A95C9F78095DC
:103B5000089597FB072E16F4009407D077FD09D03F
:103B60000E944E1E07FC05D03EF4909581959F4F14
:103B70000895709561957F4F0895A1E21A2EAA1BB2
:103B8000BB1BFD010DC0AA1FBB1FEE1FFF1FA2170D
:103B9000B307E407F50720F0A21BB30BE40BF50B0A
:103BA000661F771F881F991F1A9469F76095709593
:103BB000809590959B01AC01BD01CF010895052E24
:103BC00097FB1EF400940E94F61D57FD07D00E943B
:103BD000BD1D07FC03D04EF40C94F61D5095409586
:103BE000309521953F4F4F4F5F4F089590958095A9
:103BF000709561957F4F8F4F9F4F0895EE0FFF1F78
:103C00000590F491E02D09940E94621EA59F900DED
:103C1000B49F900DA49F800D911D11240895B7FFAE
:103C20000C94041E0E94041E821B930B08950F9394
:103C3000083090F0982F872F762F652F542F432F21
:103C4000322F22270850F4CF220F331F441F551F55
:103C5000661F771F881F991F0A95B2F70F91089565
:103C600097FB10F8169400080F93083098F008504E
:103C7000232F342F452F562F672F782F892F902DE4
:103C8000F4CF0594979587957795679557954795C0
:103C9000379527950A95AAF70F910895AA1BBB1B84
:103CA00051E107C0AA1FBB1FA617B70710F0A61B3C
:103CB000B70B881F991F5A95A9F780959095BC015D
:103CC000CD010895A29FB001B39FC001A39F700DC5
:103CD000811D1124911DB29F700D811D1124911D14
:103CE00008958F929F92AF92BF92CF92DF92EF9200
:103CF000FF92CF93DF93EC01688179818A819B8168
:103D0000611571058105910521F464E279ED8BE57A
:103D100097E02DE133EF41E050E00E94DF1D4901C3
:103D20005A019B01AC01A7EAB1E40E94041E6B0199
:103D30007C01ACEEB4EFA50194010E94121EC60EE8
:103D4000D71EE81EF91EF7FE06C081E0C81AD1088A
:103D5000E10880E8F80AC882D982EA82FB82C701BA
:103D6000B6019F77DF91CF91FF90EF90DF90CF90DA
:103D7000BF90AF909F908F9008950E94711E0895FC
:103D800080E091E00E94711E08956093000170939D
:103D9000010180930201909303010895AEE0B0E029
:103DA000E4EDFEE10C948C210D891E8986E08C8364
:103DB0001A8309838FEF9FE79E838D83AE01475E51
:103DC0005F4F6F89788DCE0101960E94F01EEF81C2
:103DD000F885E00FF11F10822E96E4E00C94A821E4
:103DE000ACE0B0E0E6EFFEE10C947E217C016B01DB
:103DF0008A01FC0117821682838181FFBDC1CE0139
:103E000001964C01F7019381F60193FD859193FF93
:103E100081916F01882309F4ABC1853239F493FD98
:103E2000859193FF81916F01853229F4B70190E06C
:103E30000E94EE20E7CF512C312C20E02032A0F45C
:103E40008B3269F030F4803259F0833269F42061AA
:103E50002CC08D3239F0803339F4216026C02260C5
:103E6000246023C0286021C027FD27C030ED380F13
:103E70003A3078F426FF06C0FAE05F9E300D112438
:103E8000532E13C08AE0389E300D1124332E206249
:103E90000CC08E3221F426FD6BC1206406C08C3626
:103EA00011F4206802C0883641F4F60193FD859133
:103EB00093FF81916F018111C1CF982F9F7D955400
:103EC000933028F40C5F1F4FFFE3F9830DC0833656
:103ED00031F0833771F0833509F05BC022C0F801FF
:103EE000808189830E5F1F4F44244394512C5401D9
:103EF00015C03801F2E06F0E711CF801A080B1808E
:103F000026FF03C0652D70E002C06FEF7FEFC50193
:103F10002C870E94E3202C0183012C852F77222EF1
:103F200017C03801F2E06F0E711CF801A080B1805B
:103F300026FF03C0652D70E002C06FEF7FEFC50163
:103F40002C870E94D8202C012C852068222E8301EA
:103F500023FC1BC0832D90E048165906B0F4B7012E
:103F600080E290E00E94EE203A94F4CFF50127FC25
:103F7000859127FE81915F01B70190E00E94EE20BC
:103F800031103A94F1E04F1A51084114510471F77D
:103F9000E5C0843611F0893639F5F80127FF07C0EE
:103FA00060817181828193810C5F1F4F08C06081A5
:103FB0007181882777FD8095982F0E5F1F4F2F7690
:103FC000B22E97FF09C090958095709561957F4FAF
:103FD0008F4F9F4F2068B22E2AE030E0A4010E944C
:103FE0002021A82EA81844C0853729F42F7EB22E90
:103FF0002AE030E025C0F22FF97FBF2E8F36C1F0C6
:1040000018F4883579F0B4C0803719F0883721F07A
:10401000AFC02F2F2061B22EB4FE0DC08B2D846057
:10402000B82E09C024FF0AC09F2F9660B92E06C083
:1040300028E030E005C020E130E002C020E132E0BD
:10404000F801B7FE07C060817181828193810C5FA6
:104050001F4F06C06081718180E090E00E5F1F4FAE
:10406000A4010E942021A82EA818FB2DFF77BF2EA7
:10407000B6FE0BC02B2D2E7FA51450F4B4FE0AC043
:10408000B2FC08C02B2D2E7E05C07A2C2B2D03C030
:104090007A2C01C0752C24FF0DC0FE01EA0DF11D24
:1040A0008081803311F4297E09C022FF06C07394F9
:1040B000739404C0822F867809F0739423FD13C093
:1040C00020FF06C05A2C731418F4530C5718732C85
:1040D000731468F4B70180E290E02C870E94EE2010
:1040E00073942C85F5CF731410F4371801C0312C5C
:1040F00024FF12C0B70180E390E02C870E94EE20DD
:104100002C8522FF17C021FF03C088E590E002C084
:1041100088E790E0B7010CC0822F867859F021FD26
:1041200002C080E201C08BE227FD8DE2B70190E082
:104130000E94EE20A51438F4B70180E390E00E94BD
:10414000EE205A94F7CFAA94F401EA0DF11D808174
:10415000B70190E00E94EE20A110F5CF332009F4C2
:1041600051CEB70180E290E00E94EE203A94F6CF63
:10417000F7018681978102C08FEF9FEF2C96E2E1D5
:104180000C949A21F999FECF92BD81BDF89A992796
:1041900080B50895262FF999FECF1FBA92BD81BD33
:1041A00020BD0FB6F894FA9AF99A0FBE01960895B9
:1041B000FC010590615070400110D8F780959095F2
:1041C0008E0F9F1F0895FC016150704001900110F7
:1041D000D8F7809590958E0F9F1F08950F931F938A
:1041E000CF93DF93182F092FEB018B8181FD03C043
:1041F0008FEF9FEF20C082FF10C04E815F812C8126
:104200003D81421753077CF4E881F9819F012F5FBC
:104210003F4F39832883108306C0E885F985812FB5
:104220000995892B29F72E813F812F5F3F4F3F83CF
:104230002E83812F902FDF91CF911F910F910895A1
:10424000FA01AA27283051F1203181F1E8946F93C7
:104250006E7F6E5F7F4F8F4F9F4FAF4FB1E03ED06D
:10426000B4E03CD0670F781F891F9A1FA11D680F0B
:10427000791F8A1F911DA11D6A0F711D811D911D3E
:10428000A11D20D009F468943F912AE0269F1124B3
:104290003019305D3193DEF6CF010895462F477017
:1042A000405D4193B3E00FD0C9F7F6CF462F4F7072
:1042B000405D4A3318F0495D31FD4052419302D0D0
:1042C000A9F7EACFB4E0A695979587957795679576
:1042D000BA95C9F700976105710508959B01AC0176
:1042E0000A2E06945795479537952795BA95C9F79D
:1042F000620F731F841F951FA01D08952F923F9278
:104300004F925F926F927F928F929F92AF92BF92E5
:10431000CF92DF92EF92FF920F931F93CF93DF9391
:10432000CDB7DEB7CA1BDB0B0FB6F894DEBF0FBEEE
:10433000CDBF09942A88398848885F846E847D843B
:104340008C849B84AA84B984C884DF80EE80FD803D
:104350000C811B81AA81B981CE0FD11D0FB6F894B3
:0E436000DEBF0FBECDBFED010895F894FFCF74
:10436E000100000001010100070003010001070028
:10437E0000FF03000200000000000000000000002B
:10438E000000000002000200020002000000000017
:10439E00000000000000000000E80025019400BDB0
:1043AE0000A400DD002D2D2D64756D7020737461D9
:1043BE0072742D2D2D0052656769737465722061BC
:1043CE006464726573737C52656769737465722079
:1043DE0064617461005265672E6164647265737303
:1043EE00286865782C64656329205265672E6461A0
:1043FE0074612862696E2C6865782C646563290087
:10440E002C0062002C3078002D2D2D64756D7020DF
:10441E00656E642D2D2D00253032580020004C6F16
:10442E0061642050726F673A0053746172740000B9
:10443E000000005A0F6710C305CB05DE05ED050021
:00000001FF
